{
  "abi": [
    {
      "inputs": [
        {
          "internalType": "address",
          "name": "_snxResolver",
          "type": "address"
        },
        {
          "internalType": "address",
          "name": "_provider",
          "type": "address"
        },
        {
          "internalType": "address",
          "name": "_approvedExchange",
          "type": "address"
        }
      ],
      "stateMutability": "nonpayable",
      "type": "constructor"
    },
    {
      "anonymous": false,
      "inputs": [
        {
          "indexed": false,
          "internalType": "address",
          "name": "sender",
          "type": "address"
        },
        {
          "indexed": false,
          "internalType": "uint256",
          "name": "sUSDAmount",
          "type": "uint256"
        },
        {
          "indexed": false,
          "internalType": "uint256",
          "name": "snxAmount",
          "type": "uint256"
        }
      ],
      "name": "Burn",
      "type": "event"
    },
    {
      "anonymous": false,
      "inputs": [
        {
          "indexed": true,
          "internalType": "address",
          "name": "previousOwner",
          "type": "address"
        },
        {
          "indexed": true,
          "internalType": "address",
          "name": "newOwner",
          "type": "address"
        }
      ],
      "name": "OwnershipTransferred",
      "type": "event"
    },
    {
      "inputs": [],
      "name": "ADDRESSES_PROVIDER",
      "outputs": [
        {
          "internalType": "contract IPoolAddressesProvider",
          "name": "",
          "type": "address"
        }
      ],
      "stateMutability": "view",
      "type": "function"
    },
    {
      "inputs": [],
      "name": "POOL",
      "outputs": [
        {
          "internalType": "contract IPool",
          "name": "",
          "type": "address"
        }
      ],
      "stateMutability": "view",
      "type": "function"
    },
    {
      "inputs": [],
      "name": "addressResolver",
      "outputs": [
        {
          "internalType": "contract IAddressResolver",
          "name": "",
          "type": "address"
        }
      ],
      "stateMutability": "view",
      "type": "function"
    },
    {
      "inputs": [],
      "name": "approvedExchange",
      "outputs": [
        {
          "internalType": "address",
          "name": "",
          "type": "address"
        }
      ],
      "stateMutability": "view",
      "type": "function"
    },
    {
      "inputs": [
        {
          "internalType": "uint256",
          "name": "sUSDAmount",
          "type": "uint256"
        },
        {
          "internalType": "uint256",
          "name": "snxAmount",
          "type": "uint256"
        },
        {
          "internalType": "bytes",
          "name": "exchangeData",
          "type": "bytes"
        }
      ],
      "name": "burn",
      "outputs": [],
      "stateMutability": "nonpayable",
      "type": "function"
    },
    {
      "inputs": [
        {
          "internalType": "address[]",
          "name": "assets",
          "type": "address[]"
        },
        {
          "internalType": "uint256[]",
          "name": "amounts",
          "type": "uint256[]"
        },
        {
          "internalType": "uint256[]",
          "name": "premiums",
          "type": "uint256[]"
        },
        {
          "internalType": "address",
          "name": "initiator",
          "type": "address"
        },
        {
          "internalType": "bytes",
          "name": "params",
          "type": "bytes"
        }
      ],
      "name": "executeOperation",
      "outputs": [
        {
          "internalType": "bool",
          "name": "",
          "type": "bool"
        }
      ],
      "stateMutability": "nonpayable",
      "type": "function"
    },
    {
      "inputs": [],
      "name": "owner",
      "outputs": [
        {
          "internalType": "address",
          "name": "",
          "type": "address"
        }
      ],
      "stateMutability": "view",
      "type": "function"
    },
    {
      "inputs": [],
      "name": "referralCode",
      "outputs": [
        {
          "internalType": "uint16",
          "name": "",
          "type": "uint16"
        }
      ],
      "stateMutability": "view",
      "type": "function"
    },
    {
      "inputs": [],
      "name": "renounceOwnership",
      "outputs": [],
      "stateMutability": "nonpayable",
      "type": "function"
    },
    {
      "inputs": [],
      "name": "sUSD",
      "outputs": [
        {
          "internalType": "contract IERC20",
          "name": "",
          "type": "address"
        }
      ],
      "stateMutability": "view",
      "type": "function"
    },
    {
      "inputs": [],
      "name": "snx",
      "outputs": [
        {
          "internalType": "contract IERC20",
          "name": "",
          "type": "address"
        }
      ],
      "stateMutability": "view",
      "type": "function"
    },
    {
      "inputs": [
        {
          "internalType": "address",
          "name": "newOwner",
          "type": "address"
        }
      ],
      "name": "transferOwnership",
      "outputs": [],
      "stateMutability": "nonpayable",
      "type": "function"
    },
    {
      "inputs": [
        {
          "internalType": "address",
          "name": "token",
          "type": "address"
        }
      ],
      "name": "transferToken",
      "outputs": [],
      "stateMutability": "nonpayable",
      "type": "function"
    }
  ],
  "bytecode": {
    "object": "0x6101406040523480156200001257600080fd5b5060405162001797380380620017978339810160408190526200003591620002c1565b620000403362000254565b6001600160a01b03831660808190526040516321f8a72160e01b815269050726f787945524332360b41b600482015284916000916321f8a72190602401602060405180830381865afa1580156200009b573d6000803e3d6000fd5b505050506040513d601f19601f82011682018060405250810190620000c191906200030b565b6001600160a01b0381811660a0526040516321f8a72160e01b81526d141c9bde1e515490cc8c1cd554d160921b60048201529192508316906321f8a72190602401602060405180830381865afa15801562000120573d6000803e3d6000fd5b505050506040513d601f19601f820116820180604052508101906200014691906200030b565b6001600160a01b0390811660c052841660e08190526040805163026b1d5f60e01b8152905186929163026b1d5f9160048083019260209291908290030181865afa15801562000199573d6000803e3d6000fd5b505050506040513d601f19601f82011682018060405250810190620001bf91906200030b565b6001600160a01b039081166101005284811661012081905260405163095ea7b360e01b8152600481019190915260001960248201529083169063095ea7b3906044016020604051808303816000875af115801562000221573d6000803e3d6000fd5b505050506040513d601f19601f8201168201806040525081019062000247919062000330565b5050505050505062000354565b600080546001600160a01b038381166001600160a01b0319831681178455604051919092169283917f8be0079c531659141344cd1fd0a4f28419497f9722a3daafe3b4186f6b6457e09190a35050565b80516001600160a01b0381168114620002bc57600080fd5b919050565b600080600060608486031215620002d757600080fd5b620002e284620002a4565b9250620002f260208501620002a4565b91506200030260408501620002a4565b90509250925092565b6000602082840312156200031e57600080fd5b6200032982620002a4565b9392505050565b6000602082840312156200034357600080fd5b815180151581146200032957600080fd5b60805160a05160c05160e05161010051610120516113a7620003f060003960008181610188015261092c01526000818161014e0152818161049301526105bd0152600060d90152600081816101e3015281816102a5015281816106b701528181610a0d01528181610ae10152610b6901526000818161023801526108b801526000818161011d01528181610344015261079201526113a76000f3fe608060405234801561001057600080fd5b50600436106100cf5760003560e01c80638da5cb5b1161008c578063d8b6d25211610066578063d8b6d25214610205578063deebeac914610220578063e7d2799814610233578063f2fde38b1461025a57600080fd5b80638da5cb5b146101aa578063920f5c84146101bb5780639324cac7146101de57600080fd5b80630542975c146100d457806305a2ee2a14610118578063715018a61461013f5780637535d2461461014957806380a5a3711461017057806384ea450114610183575b600080fd5b6100fb7f000000000000000000000000000000000000000000000000000000000000000081565b6040516001600160a01b0390911681526020015b60405180910390f35b6100fb7f000000000000000000000000000000000000000000000000000000000000000081565b61014761026d565b005b6100fb7f000000000000000000000000000000000000000000000000000000000000000081565b61014761017e366004610e79565b610281565b6100fb7f000000000000000000000000000000000000000000000000000000000000000081565b6000546001600160a01b03166100fb565b6101ce6101c9366004610f26565b6105b0565b604051901515815260200161010f565b6100fb7f000000000000000000000000000000000000000000000000000000000000000081565b61020d600081565b60405161ffff909116815260200161010f565b61014761022e366004611001565b610c20565b6100fb7f000000000000000000000000000000000000000000000000000000000000000081565b610147610268366004611001565b610d0d565b610275610d86565b61027f6000610de0565b565b604080516001808252818301909252600091602080830190803683370190505090507f0000000000000000000000000000000000000000000000000000000000000000816000815181106102d7576102d761103b565b6001600160a01b0392909216602092830291909101909101526040805160018082528183019092526000918160200160208202803683370190505090506000198614610323578561042e565b6040516321f8a72160e01b8152680a6f2dce8d0cae8d2f60bb1b60048201527f00000000000000000000000000000000000000000000000000000000000000006001600160a01b0316906321f8a72190602401602060405180830381865afa158015610393573d6000803e3d6000fd5b505050506040513d601f19601f820116820180604052508101906103b79190611051565b60405163d37c4d8b60e01b8152336004820152631cd554d160e21b60248201526001600160a01b03919091169063d37c4d8b90604401602060405180830381865afa15801561040a573d6000803e3d6000fd5b505050506040513d601f19601f8201168201806040525081019061042e919061106e565b816000815181106104415761044161103b565b60209081029190910101526040805160018082528183019092526000918160200160208202803683370190505090506000816000815181106104855761048561103b565b6020026020010181815250507f00000000000000000000000000000000000000000000000000000000000000006001600160a01b031663ab9c4b5d30858585308c338d8d6040516020016104dc9493929190611087565b60405160208183030381529060405260006040518863ffffffff1660e01b815260040161050f9796959493929190611165565b600060405180830381600087803b15801561052957600080fd5b505af115801561053d573d6000803e3d6000fd5b505050507f49995e5dd6158cf69ad3e9777c46755a1a826a446c6416992167462dad033b2a33836000815181106105765761057661103b565b602090810291909101810151604080516001600160a01b03909416845291830152810188905260600160405180910390a150505050505050565b6000336001600160a01b037f0000000000000000000000000000000000000000000000000000000000000000161461063b5760405162461bcd60e51b8152602060048201526024808201527f534e58466c6173684c6f616e546f6f6c3a20496e76616c6964206d73672e7365604482015263373232b960e11b60648201526084015b60405180910390fd5b6001600160a01b038416301461069f5760405162461bcd60e51b815260206004820152602360248201527f534e58466c6173684c6f616e546f6f6c3a20496e76616c696420696e697469616044820152623a37b960e91b6064820152608401610632565b600080806106af85870187611221565b9250925092507f00000000000000000000000000000000000000000000000000000000000000006001600160a01b031663a9059cbb838d8d60008181106106f8576106f861103b565b6040516001600160e01b031960e087901b1681526001600160a01b03909416600485015260200291909101356024830152506044016020604051808303816000875af115801561074c573d6000803e3d6000fd5b505050506040513d601f19601f8201168201806040525081019061077091906112ee565b506040516321f8a72160e01b8152680a6f2dce8d0cae8d2f60bb1b60048201527f00000000000000000000000000000000000000000000000000000000000000006001600160a01b0316906321f8a72190602401602060405180830381865afa1580156107e1573d6000803e3d6000fd5b505050506040513d601f19601f820116820180604052508101906108059190611051565b6001600160a01b031663c2bf3880838d8d60008181106108275761082761103b565b6040516001600160e01b031960e087901b1681526001600160a01b0390941660048501526020029190910135602483015250604401600060405180830381600087803b15801561087657600080fd5b505af115801561088a573d6000803e3d6000fd5b50506040516323b872dd60e01b81526001600160a01b038581166004830152306024830152604482018790527f00000000000000000000000000000000000000000000000000000000000000001692506323b872dd91506064016020604051808303816000875af1158015610903573d6000803e3d6000fd5b505050506040513d601f19601f8201168201806040525081019061092791906112ee565b5060007f00000000000000000000000000000000000000000000000000000000000000006001600160a01b0316826040516109629190611310565b6000604051808303816000865af19150503d806000811461099f576040519150601f19603f3d011682016040523d82523d6000602084013e6109a4565b606091505b50509050806109f55760405162461bcd60e51b815260206004820152601d60248201527f534e58466c6173684c6f616e546f6f6c3a2053776170206661696c65640000006044820152606401610632565b6040516370a0823160e01b81523060048201526000907f00000000000000000000000000000000000000000000000000000000000000006001600160a01b0316906370a0823190602401602060405180830381865afa158015610a5c573d6000803e3d6000fd5b505050506040513d601f19601f82011682018060405250810190610a80919061106e565b905060008b8b6000818110610a9757610a9761103b565b905060200201358e8e6000818110610ab157610ab161103b565b90506020020135610ac29190611342565b60405163095ea7b360e01b8152336004820152602481018290529091507f00000000000000000000000000000000000000000000000000000000000000006001600160a01b03169063095ea7b3906044016020604051808303816000875af1158015610b32573d6000803e3d6000fd5b505050506040513d601f19601f82011682018060405250810190610b5691906112ee565b5081811015610c0a576001600160a01b037f00000000000000000000000000000000000000000000000000000000000000001663a9059cbb86610b99848661135a565b6040516001600160e01b031960e085901b1681526001600160a01b03909216600483015260248201526044016020604051808303816000875af1158015610be4573d6000803e3d6000fd5b505050506040513d601f19601f82011682018060405250810190610c0891906112ee565b505b5060019f9e505050505050505050505050505050565b610c28610d86565b6040516370a0823160e01b81523060048201526001600160a01b0382169063a9059cbb90339083906370a0823190602401602060405180830381865afa158015610c76573d6000803e3d6000fd5b505050506040513d601f19601f82011682018060405250810190610c9a919061106e565b6040516001600160e01b031960e085901b1681526001600160a01b03909216600483015260248201526044016020604051808303816000875af1158015610ce5573d6000803e3d6000fd5b505050506040513d601f19601f82011682018060405250810190610d0991906112ee565b5050565b610d15610d86565b6001600160a01b038116610d7a5760405162461bcd60e51b815260206004820152602660248201527f4f776e61626c653a206e6577206f776e657220697320746865207a65726f206160448201526564647265737360d01b6064820152608401610632565b610d8381610de0565b50565b6000546001600160a01b0316331461027f5760405162461bcd60e51b815260206004820181905260248201527f4f776e61626c653a2063616c6c6572206973206e6f7420746865206f776e65726044820152606401610632565b600080546001600160a01b038381166001600160a01b0319831681178455604051919092169283917f8be0079c531659141344cd1fd0a4f28419497f9722a3daafe3b4186f6b6457e09190a35050565b60008083601f840112610e4257600080fd5b50813567ffffffffffffffff811115610e5a57600080fd5b602083019150836020828501011115610e7257600080fd5b9250929050565b60008060008060608587031215610e8f57600080fd5b8435935060208501359250604085013567ffffffffffffffff811115610eb457600080fd5b610ec087828801610e30565b95989497509550505050565b60008083601f840112610ede57600080fd5b50813567ffffffffffffffff811115610ef657600080fd5b6020830191508360208260051b8501011115610e7257600080fd5b6001600160a01b0381168114610d8357600080fd5b600080600080600080600080600060a08a8c031215610f4457600080fd5b893567ffffffffffffffff80821115610f5c57600080fd5b610f688d838e01610ecc565b909b50995060208c0135915080821115610f8157600080fd5b610f8d8d838e01610ecc565b909950975060408c0135915080821115610fa657600080fd5b610fb28d838e01610ecc565b909750955060608c01359150610fc782610f11565b90935060808b01359080821115610fdd57600080fd5b50610fea8c828d01610e30565b915080935050809150509295985092959850929598565b60006020828403121561101357600080fd5b813561101e81610f11565b9392505050565b634e487b7160e01b600052604160045260246000fd5b634e487b7160e01b600052603260045260246000fd5b60006020828403121561106357600080fd5b815161101e81610f11565b60006020828403121561108057600080fd5b5051919050565b8481526001600160a01b03841660208201526060604082018190528101829052818360808301376000818301608090810191909152601f909201601f191601019392505050565b600081518084526020808501945080840160005b838110156110fe578151875295820195908201906001016110e2565b509495945050505050565b60005b8381101561112457818101518382015260200161110c565b83811115611133576000848401525b50505050565b60008151808452611151816020860160208601611109565b601f01601f19169290920160200192915050565b6001600160a01b03888116825260e0602080840182905289519184018290526000928a820192909190610100860190855b818110156111b4578551851683529483019491830191600101611196565b505085810360408701526111c8818c6110ce565b935050505082810360608401526111df81886110ce565b6001600160a01b0387166080850152905082810360a08401526112028186611139565b91505061121560c083018461ffff169052565b98975050505050505050565b60008060006060848603121561123657600080fd5b83359250602084013561124881610f11565b9150604084013567ffffffffffffffff8082111561126557600080fd5b818601915086601f83011261127957600080fd5b81358181111561128b5761128b611025565b604051601f8201601f19908116603f011681019083821181831017156112b3576112b3611025565b816040528281528960208487010111156112cc57600080fd5b8260208601602083013760006020848301015280955050505050509250925092565b60006020828403121561130057600080fd5b8151801515811461101e57600080fd5b60008251611322818460208701611109565b9190910192915050565b634e487b7160e01b600052601160045260246000fd5b600082198211156113555761135561132c565b500190565b60008282101561136c5761136c61132c565b50039056fea2646970667358221220872b14e04ff5e838bfad3aa85b843e03153f17c9d2373538639a657a29a43d0a64736f6c634300080a0033",
    "linkReferences": {}
  },
  "methodIdentifiers": {
    "ADDRESSES_PROVIDER()": "0542975c",
    "POOL()": "7535d246",
    "addressResolver()": "05a2ee2a",
    "approvedExchange()": "84ea4501",
    "burn(uint256,uint256,bytes)": "80a5a371",
    "executeOperation(address[],uint256[],uint256[],address,bytes)": "920f5c84",
    "owner()": "8da5cb5b",
    "referralCode()": "d8b6d252",
    "renounceOwnership()": "715018a6",
    "sUSD()": "9324cac7",
    "snx()": "e7d27998",
    "transferOwnership(address)": "f2fde38b",
    "transferToken(address)": "deebeac9"
  },
  "id": 11
}